:1000000038C4000067C4000065C4000063C4000079
:1000100061C400005FC400005DC400005BC4000058
:1000200059C4000057C4000055C4000053C4000068
:1000300051C400004FC400004DC400004BC4000078
:1000400049C4000047C4000045C4000043C4000088
:100050000C94B31F3FC400003DC400000C94691F02
:1000600039C400000C94331F0C94091F33C40000E2
:1000700031C400002FC400002DC400002BC40000B8
:1000800029C4000027C4000025C4000023C40000C8
:100090000C94D31E0C94A91E1DC400001BC40000A8
:1000A00019C4000017C4000015C4000013C40000E8
:1000B00011C400000FC400000DC400000BC40000F8
:1000C00009C4000007C4000005C4000003C4000008
:1000D00001C40000FFC30000FDC30000FBC300001B
:1000E000F9C30000504D520041424F4E4E4553005F
:1000F0004C494252455300504C41434553004645FC
:10010000524D45004F555645525400434F4D504CAB
:100110004554004C49425245005041524B494E47CC
:1001200000000FF00000F0FFFFA5FF00000000003E
:100130003E5B4F5B3E3E6B4F6B3E1C3E7C3E1C1855
:100140003C7E3C181C577D571C1C5E7F5E1C0018B3
:100150003C1800FFE7C3E7FF0018241800FFE7DBA7
:10016000E7FF30483A060E2629792926407F050503
:1001700007407F05253F5A3CE73C5A7F3E1C1C0840
:10018000081C1C3E7F14227F22145F5F005F5F0605
:10019000097F017F006689956A606060606094A253
:1001A000FFA29408047E040810207E201008082A6C
:1001B0001C08081C2A08081E101010100C1E0C1E0B
:1001C0000C30383E3830060E3E0E060000000000AF
:1001D00000005F00000007000700147F147F142454
:1001E0002A7F2A12231308646236495620500008D9
:1001F000070300001C2241000041221C002A1C7F32
:100200001C2A08083E08080080703000080808080A
:1002100008000060600020100804023E5149453E7D
:1002200000427F400072494949462141494D3318F7
:1002300014127F1027454545393C4A49493141212F
:100240001109073649494936464949291E00001413
:10025000000000403400000008142241141414145B
:1002600014004122140802015909063E415D594E0D
:100270007C1211127C7F494949363E414141227F1F
:100280004141413E7F494949417F090909013E41B8
:100290004151737F0808087F00417F4100204041A1
:1002A0003F017F081422417F404040407F021C02F2
:1002B0007F7F0408107F3E4141413E7F09090906C6
:1002C0003E4151215E7F0919294626494949320399
:1002D000017F01033F4040403F1F2040201F3F401F
:1002E00038403F63140814630304780403615949D8
:1002F0004D43007F4141410204081020004141412B
:100300007F0402010204404040404000030708000F
:1003100020545478407F2844443838444444283892
:100320004444287F385454541800087E090218A405
:10033000A49C787F0804047800447D40002040405D
:100340003D007F1028440000417F40007C04780479
:10035000787C080404783844444438FC1824241871
:1003600018242418FC7C0804040848545454240419
:10037000043F44243C4040207C1C2040201C3C4046
:1003800030403C44281028444C9090907C44645465
:100390004C44000836410000007700000041360858
:1003A0000002010204023C2623263C1EA1A1611288
:1003B0003A4040207A3854545559215555794122B4
:1003C00054547842215554784020545579400C1E9D
:1003D0005272123955555559395454545939555446
:1003E00054580000457C410002457D420001457C97
:1003F000407D1211127DF0282528F07C54554500CF
:100400002054547C547C0A097F4932494949323A84
:100410004444443A324A4848303A4141217A3A42C7
:10042000402078009DA0A07D3D4242423D3D40409D
:10043000403D3C24FF2424487E4943662B2FFC2F5B
:100440002BFF0929F620C0887E09032054547941E6
:100450000000447D413048484A32384040227A000A
:100460007A0A0A727D0D19317D2629292F2826291D
:1004700029292630484D402038080808080808086F
:1004800008382F10C8ACBA2F102834FA00007B00AF
:100490000008142A142222142A1408550055005565
:1004A000AA55AA55AAFF55FF55FF000000FF0010EE
:1004B0001010FF00141414FF001010FF00FF1010A4
:1004C000F010F0141414FC001414F700FF0000FFE7
:1004D00000FF1414F404FC141417101F10101F1044
:1004E0001F1414141F00101010F0000000001F1043
:1004F0001010101F10101010F010000000FF10104E
:1005000010101010101010FF10000000FF14000059
:10051000FF00FF00001F10170000FC04F414141764
:1005200010171414F404F40000FF00F7141414144A
:10053000141414F700F7141414171410101F101FBC
:10054000141414F4141010F010F000001F101F0009
:1005500000001F14000000FC140000F010F0101048
:10056000FF10FF141414FF141010101F00000000DF
:10057000F010FFFFFFFFFFF0F0F0F0F0FFFFFF00D3
:1005800000000000FFFF0F0F0F0F0F3844443844E6
:10059000FC4A4A4A347E02020606027E027E02635A
:1005A000554941633844443C04407E201E200602E5
:1005B0007E020299A5E7A5991C2A492A1C4C7201C2
:1005C000724C304A4D4D303048784830BC625A4603
:1005D0003D3E494949007E0101017E2A2A2A2A2AF4
:1005E00044445F444440514A444040444A514000DE
:1005F00000FF0103E080FF000008086B6B08361263
:10060000362436060F090F060000181800000010E7
:1006100010003040FF0101001F01011E00191D17CD
:1006200012003C3C3C3C0000000000000021002483
:100630000027002A002D00300033000101000004D3
:100640000107010A01000000000000000000000096
:10065000000000000000000000000000000000009A
:10066000000000000000000000000000000000008A
:10067000000000000000000000000000000000007A
:100680000000000000000001010101010101010161
:10069000010101010101010101010101010101014A
:1006A0000101010101010101010101020202020235
:1006B000020202020202020202020202020202021A
:1006C00002020303030303030303030303030303FC
:1006D00003030303040404040404040404040404DE
:1006E00004040405050505050505050505050505BD
:1006F0000606060606060606060606060707070796
:100700000707070707070708080808080808080870
:10071000080909090909090909090A0A0A0A0A0A44
:100720000A0A0A0B0B0B0B0B0B0B0B0C0C0C0C0C17
:100730000C0C0C0D0D0D0D0D0D0D0E0E0E0E0E0EE6
:100740000E0F0F0F0F536576656E5061726B008050
:10075000000200001000000A0B02090C0D0E080731
:100760000304010000000000000000000000000081
:100770000000000000000000000000000000000079
:100780000012111000000000000000000000000036
:100790000000000000000000000000000000000059
:1007A0000000000000000000000000002200250002
:1007B00028002B002E00310034000201000005014A
:1007C00008010B01050505050705080808080202D0
:1007D00002020A0A080804040404010101010101DB
:1007E00001010303030303030303040707070C0CBE
:1007F0000C0C0C0C0C0C0202020206060606060685
:1008000006060B0B0B0B0B0B0B0B0505050808075E
:10081000070404040A0A0A0A0A0102102020080830
:100820001020401020408002010201080402010152
:10083000020408102040808040201008040201803B
:100840000402018040201008040201080402010192
:100850000204081020408001020408102040800497
:1008600040800480081010204004081020403B21E4
:100870001D2711241FBECFEFD1E2DEBFCDBF00E0A8
:100880000CBF26E0A6EFB3E001C01D92A239B2076B
:10089000E1F713E0A0E0B2E0E6E3F4E500E00BBF2F
:1008A00002C007900D92A63FB107D9F714E0C8E344
:1008B000D4E000E006C021970109802FFE010E94CC
:1008C000E627C733D10780E00807A9F70E94EA228C
:1008D0000C940A2A95CBFC01A089B18982E08C9303
:1008E000A485B5851C92A685B7858FEC8C93108E58
:1008F000A489B58986E08C93A289B3898C918061A3
:100900008C93A289B3898C9188608C93A289B389D6
:100910008C9180688C930288F389E02D80818F7D93
:1009200080830895282F30E0F901EB5AF84F949115
:10093000F901E75EF74F44912C53384FF9012491A8
:10094000222309F432C0992311F191509231F8F425
:10095000E92FF0E08827E055FB4F8F4F0C94E627F6
:10096000DE04E204C204D604DA04C704E504EB049E
:10097000EF04F504F904FD0403050705C7040B059E
:1009800011051505809180008F7780938000E22FFC
:10099000F0E0EE0FFF1FE655F84FA591B4918FB729
:1009A000F894EC914E2B4C938FBF0895809180006A
:1009B0008F7DEBCF80918000877FE7CF84B58F77E5
:1009C00084BDE5CF84B58F7DFBCF8091B0008F775C
:1009D0008093B000DCCF8091B0008F7DF9CF809103
:1009E00090008F7780939000D2CF809190008F7D80
:1009F000F9CF80919000877FF5CF8091A0008F770D
:100A00008093A000C4CF8091A0008F7DF9CF80910A
:100A1000A000877FF5CF809120018F778093200100
:100A2000B6CF809120018F7DF9CF80912001877F03
:100A3000F5CFDB0114964D915C9115976D917C91EA
:100A4000DC01ED91FC910280F381E02D1994AF92CD
:100A5000BF92CF92DF92EF92FF920F931F93CF93AB
:100A6000DF936C017B018B01040F151FEB015E010D
:100A7000AE18BF08C017D10759F06991D601ED91A2
:100A8000FC910190F081E02DC6011995892B79F731
:100A9000C501DF91CF911F910F91FF90EF90DF90F3
:100AA000CF90BF90AF900895FC01538D448D252FBA
:100AB00030E0842F90E0821B930B541710F0CF96F8
:100AC000089501970895FC01918D828D981761F02A
:100AD000A28DAE0FBF2FB11D5D968C91928D9F5F41
:100AE0009F73928F90E008958FEF9FEF0895FC0120
:100AF000918D828D981731F0828DE80FF11D858DD3
:100B000090E008958FEF9FEF0895FC01918D228D65
:100B1000892F90E0805C9F4F821B91098F739927EA
:100B2000089585E694E0F1DF21E0892B09F420E0C7
:100B3000822F089582E095E0E8DF21E0892B09F417
:100B400020E0822F0895FC01A48DA80FB92FB11DBC
:100B5000A35ABF4F2C91848D90E001968F739927F3
:100B6000848FA689B7892C93A089B1898C918370D1
:100B700080648C93938D848D981306C00288F389CA
:100B8000E02D80818F7D80830895EF92FF920F93F7
:100B90001F93CF93DF93EC0181E0888F9B8D8C8D29
:100BA00098131AC0E889F989808185FF15C09FB71D
:100BB000F894EE89FF896083E889F98980818370E0
:100BC000806480839FBF81E090E0DF91CF911F918F
:100BD0000F91FF90EF900895F62E0B8D10E00F5FB0
:100BE0001F4F0F731127E02E8C8D8E110BC00FB687
:100BF00007FCFACFE889F989808185FFF5CFCE011E
:100C0000A2DFF2CFEB8DEC0FFD2FF11DE35AFF4F6A
:100C1000F0829FB7F8940B8FEA89FB89808180620C
:100C2000D0CFCF93DF93EC01888D8823B1F0AA89D0
:100C3000BB89E889F9898C9185FD03C0808186FD97
:100C40000CC00FB607FCF7CF8C9185FFF2CF8081E7
:100C500085FFEDCFCE0177DFEACFDF91CF91089509
:100C600080E090E0892B21F065DF81110E94000077
:100C700080E090E0892B21F054DF81110E94000078
:100C800080E090E0892B49F080E090E0892B29F00A
:100C90000E94000081110E94000080E090E0892BFA
:100CA00049F080E090E0892B29F00E94000081113A
:100CB0000C9400000895CF93DF9390E0FC01E75E71
:100CC000F74F24918C53984FFC0184918823D1F0E5
:100CD00090E0880F991FFC01E55DF94FA591B49153
:100CE000FC01E655F84FC591D49161110EC09FB734
:100CF000F8948C91E22FE0958E238C932881E22347
:100D0000E8839FBFDF91CF9108958FB7F894EC915E
:100D1000E22BEC938FBFF6CF3FB7F8948091590444
:100D200090915A04A0915B04B0915C0426B5A89BF5
:100D300005C02F3F19F00196A11DB11D3FBFBA2F6D
:100D4000A92F982F8827BC01CD01620F711D811D2D
:100D5000911D42E0660F771F881F991F4A95D1F7B2
:100D600008958F929F92AF92BF92CF92DF92EF92AF
:100D7000FF924B015C01D0DF6B017C01CDDF6C1970
:100D80007D098E099F09683E734081059105B0F386
:100D900021E0821A9108A108B10888EEC80E83E00C
:100DA000D81EE11CF11C81149104A104B10431F797
:100DB000FF90EF90DF90CF90BF90AF909F908F907B
:100DC00008957F928F929F92AF92BF92CF92DF92BF
:100DD000EF92FF920F931F93CF93DF93FC01590182
:100DE00077FD16C180859185681779070CF010C1D1
:100DF00057FD0EC182859385481759070CF008C12D
:100E0000C480D5808589823009F493C0833009F489
:100E10009EC0813031F4C6010197841B950BAB0154
:100E2000BC01D501AB2FBB27A295AF707A2E45012F
:100E3000880C892C881C99089194382D3F70932E2A
:100E4000B694A7948A2D8F70B82E958D81E0092EC7
:100E500001C0880F0A94EAF7E48CF12CC68DD0E02B
:100E60002C96CC0FDD1FCE0FDF1F08811981292F93
:100E70002150330BE901A170BB27982D91702A2DC9
:100E800021704E155F050CF070C04C9D70014D9D9A
:100E9000F00C5C9DF00C1124EC9EA001ED9E500D19
:100EA000FC9E500D1124EA01C60FD71F678D30E458
:100EB000639FB0011124C60FD71FC00FD11F4881F7
:100EC0004C7FAB2B09F04BC04883992319F09881D4
:100ED00092609883978DDE0130E2939FA019B1094B
:100EE00011249C91222309F43CC091609C93978D1E
:100EF00020E2929FA019B109112492E0981708F0FE
:100F000087C02C91237E472D492369F52C93292DE9
:100F1000292319F02C9128602C932B2D292319F0CB
:100F20002C9120612C9344815581A40FB51F990FFA
:100F3000E5CFC60101979C01261B370BB9018681BD
:100F4000978101979C01241B350BA9016ACF8681EB
:100F500097810197861B970BBA01AC0162CF416064
:100F6000B3CF9E7FC3CF2460D1CF4E195F094C9D74
:100F700070014D9DF00C5C9DF00C1124EC9EA001C5
:100F8000ED9E500DFC9E500D1124640F751FE8015D
:100F9000C60FD71F48814C7F4883478D30E2AB2B6B
:100FA00069F1439FD0011124AC0FBD1F4C914260E9
:100FB0004C93992319F0988191609883222319F01A
:100FC00098819260988392E0981710F528812F718C
:100FD000472D4923D9F42883292D292319F0288165
:100FE000206428832B2D292319F028812068288349
:100FF00044815581C40FD51F990FE6CF439FD0017F
:101000001124AC0FBD1F4C914D7FD2CF2062E3CF96
:10101000DF91CF911F910F91FF90EF90DF90CF90D4
:10102000BF90AF909F908F907F90089508952F92DA
:101030003F924F925F926F927F928F929F92AF9268
:10104000BF92CF92DF92EF92FF920F931F93CF93B5
:10105000DF93CDB7DEB72C970FB6F894DEBF0FBE87
:10106000CDBF9C878B876A3061F5DC0154968C91EB
:10107000B8E08B9F90011124EB85FC8586859785D0
:10108000820F931F978786871586148681E090E0EC
:101090002C960FB6F894DEBF0FBECDBFDF91CF9177
:1010A0001F910F91FF90EF90DF90CF90BF90AF9086
:1010B0009F908F907F906F905F904F903F902F9078
:1010C00008956D3019F3AB85BC851C96CD90DC90EE
:1010D0001D9718968D919C911997C816D9060CF0FA
:1010E0008BC01E968D909C901F971A968D919C9107
:1010F0001B97881699060CF07FC05496BC91B98353
:10110000AB2EB12CC601E6E0BE9F800D911D1124CF
:10111000181619060CF070C0C50123E0880F991F3E
:101120002A95E1F7880D991D181619060CF064C070
:10113000AB85BC8557968C91811103C0603B08F04C
:101140006F5FEB85FC850288F389E02DFC83EB83E0
:10115000AB85BC8550960D90BC91A02DBE83AD8310
:1011600026011A828BE291E08C199D09FC0125E091
:10117000629FE00DF11D1124FA87E9873A81E0E0D2
:10118000353029F0E985FA85E40DF51DE491140167
:10119000712C612C4E2F50E058874F83E0FF6AC0BE
:1011A000AB85BC85ED91FC91B981B13009F055C09A
:1011B0000084F185E02D2D813E81A401460D571D4F
:1011C000B2018B859C851995EF81F885F595E7959A
:1011D000FFEF6F1A7F0A2A0C3B1C28E0621671048D
:1011E000C9F63FEF431A530ACA0CDB1C4A814F5F12
:1011F0004A83463009F0C2CFAB85BC8554964C91EA
:101200005497242F30E01C968D919C91B6E04B9F13
:10121000800D911D1124EB85FC8595878487468977
:10122000442309F433CF6AEF6203A001639F500D9A
:10123000112460857185460F571F481759070CF018
:1012400025CF83E0220F331F8A95E1F786859785A6
:10125000280F391F3787268717CF0288F389E02D9B
:10126000ED80FE8085019501A101B6018B859C85ED
:101270001995AACFEB81FC812D813E81E217F307FE
:1012800009F4A2CFAB85BC85ED91FC91B981B13059
:1012900031F40084F185E02D2B813C818ECF0288D2
:1012A000F389E02DEB80FC80DDCF0F931F93CF936C
:1012B000DF938C01D0E0C0E0F801EC0FFD1F6491DA
:1012C000662339F08FE496E0B2DE892B11F0219687
:1012D000F3CFCE01DF91CF911F910F910895EF923F
:1012E000FF920F931F93DC011A960D911C911B978F
:1012F00018962D913C911997ED91FC910288F389F4
:10130000E02D7B0150E040E070E060E019951F9116
:101310000F91FF90EF9008956F927F928F929F921E
:10132000AF92BF92CF92DF92EF92FF920F931F93F3
:10133000CF93DF936C015A014801EB013B01620E30
:10134000731EC615D70574F4D601ED91FC91048483
:10135000F585E02D87019401A501BE01C60119950F
:101360002196EFCFDF91CF911F910F91FF90EF90DA
:10137000DF90CF90BF90AF909F908F907F906F90B5
:101380000895EF92FF920F931F93260F371F21505E
:101390003109DC01ED91FC910284F385E02D7801A7
:1013A0008A0119951F910F91FF90EF900895EF9288
:1013B000FF920F931F93240F351F21503109DC0139
:1013C000ED91FC910284F385E02D780189019B0168
:1013D00019951F910F91FF90EF9008952F923F92D2
:1013E0004F925F926F927F928F929F92AF92BF9235
:1013F000CF92DF92EF92FF920F931F93CF93DF93E1
:1014000000D000D01F921F92CDB7DEB74C012B0148
:1014100058874F8359019A01220F331F2F5F3F4F87
:10142000AB018F819885481B590B8501B4018FE46E
:1014300096E0BDDF81E090E07C012F813885E21AE3
:10144000F30AC901919581959109AC01440F551F8B
:101450005C834B8366246394712CD12CC12CF7FCE4
:101460000DC08F819885019798878F832B813C8150
:101470002E5F3F4F3C832B83E20EF31E3FEFC31AD8
:10148000D30A42E0640E711CE60CF71C2F803884EE
:10149000220C331C5FEF251A350AB601680D791D41
:1014A00085019101C2014F815885841B950B9A8358
:1014B0008983AC018FE496E07ADFC2018C199D0923
:1014C0009E838D839301AC016F817885680D791DB2
:1014D0008FE496E06CDFB4016C197D0991014981BC
:1014E0005A818FE496E063DF93014D815E81B40100
:1014F0008F819885681B790B8FE496E058DF2F81E8
:101500003885C216D3060CF4AACF28960FB6F894E5
:10151000DEBF0FBECDBFDF91CF911F910F91FF9026
:10152000EF90DF90CF90BF90AF909F908F907F9083
:101530006F905F904F903F902F9008956F927F92A1
:101540008F929F92AF92BF92CF92DF92EF92FF92D3
:101550000F931F93CF93DF93EC016B015A01390175
:101560004801E881F9810684F785E02D8701199506
:10157000A501480D591D41505109E881F9810684A2
:10158000F785E02D9301B601CE011995E881F98127
:101590000484F585E02D9401A501B601CE011995CD
:1015A000C60CD71CB60161507109E881F981048429
:1015B000F585E02D9401A501CE011995DF91CF911C
:1015C0001F910F91FF90EF90DF90CF90BF90AF9061
:1015D0009F908F907F906F9008952F923F924F929F
:1015E0005F926F927F928F929F92AF92BF92CF92B3
:1015F000DF92EF92FF920F931F93CF93DF9300D070
:1016000000D0CDB7DEB73C016A013E832D83FC825A
:10161000EB825801A41AB50AB7FE03C0B194A19495
:10162000B1088D809E80861A970A97FE03C0919418
:10163000819491088A149B045CF0902F812F0D8176
:101640001E819D838E839C2D8D2D6B01692F782F9C
:101650000C151D055CF09D818E817E836D83692F45
:10166000782F902F812F8601C92ED82E1601201A8F
:10167000310A2B012D813E81421A530A57FE03C0C5
:10168000519441945108710137FE03C03FEFE31AB2
:10169000F30AF594E7948D819E81861797075CF590
:1016A000A1E0B0E0BA83A983C016D1064CF1D30102
:1016B000ED91FC910084F185E02D2B813C81A80106
:1016C0006D817E818A149B041CF04D815E81B8017E
:1016D000C3011995E418F508F7FE0AC02D813E8173
:1016E00089819A81280F391F3E832D83E20CF31CD8
:1016F0000F5F1F4FD9CF2FEF3FEF3A832983D4CF0E
:1017000026960FB6F894DEBF0FBECDBFDF91CF9106
:101710001F910F91FF90EF90DF90CF90BF90AF900F
:101720009F908F907F906F905F904F903F902F9001
:101730000895089590E080E0089520916706309123
:1017400068068091690690916A062817390769F042
:1017500081E080936F0680916F06882331F061E00D
:1017600070E080E090E0FDDAF6CF08959B01215013
:1017700031092E3F3F4FE0F0DC015C962C91B0E642
:101780002B9F90011124DC015F96EC915F97E29F03
:10179000A001E39F500D11245E96EC91F0E03C9681
:1017A000EE0FFF1FE80FF91F808191810C94FC2937
:1017B00096CD0E94EF29FC0180819181009711F064
:1017C0000C94572760E070E0CB010895FC01808104
:1017D00091810C948A280F931F93CF93DF93EC0190
:1017E00088819981009759F02A813B812617370714
:1017F00030F081E0DF91CF911F910F9108958B011F
:101800006F5F7F4F0E941329009759F09983888357
:101810001B830A832C813D81232B59F7FC01108205
:10182000E8CF80E0E7CFEF92FF920F931F93CF9323
:10183000DF931F921F92CDB7DEB78C0169831A82A6
:10184000FC01E480F580FFEFEF1AFF0AB701C3DF68
:10185000882381F0F8012081318184819581BE0146
:101860006F5F7F4F820F931F0E94032AF801F5825A
:10187000E48281E00F900F90DF91CF911F910F9143
:10188000FF90EF900895EF92FF920F931F93CF93E5
:10189000DF93EC017B018A01BA019DDF2881398148
:1018A000811114C02115310519F0C9010E948A283F
:1018B000198218821D821C821B821A82CE01DF913E
:1018C000CF911F910F91FF90EF9008951D830C838E
:1018D000B701C9010E94032AF1CFCF93DF93EC0136
:1018E000FB018617970741F06081718161157105D1
:1018F00039F044815581C7DFCE01DF91CF91089542
:1019000088819981009711F00E948A281982188293
:101910001D821C821B821A82EFCFFC011182108271
:101920001382128215821482FB0101900020E9F7D4
:101930003197AF01461B570BA6CFFB01019000204A
:10194000E9F73197AF01461B570BDC01ED91FC9194
:101950000280F381E02D19948F929F92AF92BF92F3
:10196000EF92FF920F931F93CF93DF93CDB7DEB724
:10197000A1970FB6F894DEBF0FBECDBF7C01FA0170
:10198000CB0119A2223008F42AE08E010F5D1F4F0F
:10199000822E912CB12CA12CBF01A50194010E9493
:1019A000A827F901CA016A3004F5605DD8016E9379
:1019B0008D01232B242B252B79F790E080E01097C5
:1019C00019F0BD01C701B9DFA1960FB6F894DEBFCB
:1019D0000FBECDBFDF91CF911F910F91FF90EF9080
:1019E000BF90AF909F908F900895695CDFCFCF93A9
:1019F000DF93482F50E070E060E02AE085E694E055
:101A0000ABDFEC016CE472E085E694E096DF8C0FCE
:101A10009D1FDF91CF910895CF92DF92EF92FF92B9
:101A20000F931F93CF93DF936B01770FEE08FF089F
:101A3000F7FE1EC0EC01E881F9810190F081E02DF4
:101A40006DE219958C0144275527BA014C195D099F
:101A50006E097F092AE0CE017FDF800F911FDF91A1
:101A6000CF911F910F91FF90EF90DF90CF9008954D
:101A70002AE0B701A601DF91CF911F910F91FF904E
:101A8000EF90DF90CF9068CFCF93DF93BC0185E6D6
:101A900094E053DFEC016CE472E085E694E04DDF06
:101AA0008C0F9D1FDF91CF910895CF93DF93BC01E1
:101AB00085E694E0B1DFEC016CE472E085E694E049
:101AC0003CDF8C0F9D1FDF91CF91089536CF0C9492
:101AD0009A270C9492272F923F924F925F926F9287
:101AE0007F928F929F92AF92BF92CF92DF92EF92AE
:101AF000FF920F931F93CF93DF9300D01F921F92FB
:101B0000CDB7DEB7C29724E6289F7001299FF00C5D
:101B100011246FE472E085E694E0D8DFC701C5DFE9
:101B20000AEF13E01D821C821982670122E3C20EB4
:101B3000D11C470187E3880E911C27019CE3490EC5
:101B4000511C3701E1E46E0E711C1701F6E42F0EF3
:101B5000311C57012BE4A20EB11C1B830A83F80130
:101B600060816F3241F0F981F1111EC18C819D813C
:101B700001969D838C83F80160816F3269F0F98151
:101B8000F23051F48C819D818C0D9D1DA0DF8C81E4
:101B90009D8101969D838C83F80160816F3269F08D
:101BA000F981F33051F48C819D81880D991D8FDF6F
:101BB0008C819D8101969D838C83F80160816F32B9
:101BC00069F0F981F43051F48C819D81840D951D6B
:101BD0007EDF8C819D8101969D838C83F8016081DD
:101BE0006F3269F0F981F53051F48C819D81860D59
:101BF000971D6DDF8C819D8101969D838C83F801FB
:101C000060816F3269F0F981F63051F48C819D81E9
:101C1000820D931D5CDF8C819D8101969D838C8359
:101C2000F80160816F3269F0F981F73051F48C81ED
:101C30009D818A0D9B1D4BDF8C819D8101969D832B
:101C40008C830F5F1F4FEA81FB8180818F32E9F423
:101C5000E981E150E730A0F4F0E060E08827EC5C37
:101C6000F14F8F4F0C94E6273B0E6C0E710E760EE3
:101C70007B0E800E850E8C819D818E0D9F1D27DF32
:101C8000F981FF5FF9831D821C828AE494E080174A
:101C9000910709F062CF61E672E085E694E016DF15
:101CA000EEE4F2E0E98310925D04F981FF2391F103
:101CB00020915D042A83C701820F911D0ADF898369
:101CC000882329F0682F85E694E00E94C505FA81F3
:101CD000FF5FF0935D04E9CF8C819D818C0D9D1D8C
:101CE000CECF8C819D81880D991DC9CF8C819D811E
:101CF000840D951DC4CF8C819D81860D971DBFCF0E
:101D00008C819D81820D931DBACF8C819D818A0D1E
:101D10009B1DB5CF8EE492E0B7DE6BE672E085E600
:101D200094E0D4DEC601D5DE62DE63E772E085E6CC
:101D300094E0CCDEC401CDDE5ADE6AE772E085E6CF
:101D400094E0C4DEC201C5DE52DE64E872E085E6DE
:101D500094E0BCDEC301BDDE4ADE6FE872E085E6DA
:101D600094E0B4DEC101B5DE42DE6CE972E085E6E6
:101D700094E0ACDEC501ADDE0F900F900F900F9098
:101D80000F90DF91CF911F910F91FF90EF90DF9017
:101D9000CF90BF90AF909F908F907F906F905F900B
:101DA0004F903F902F9023CE2981213009F0E3CE30
:101DB0008C819D818E0D9F1D8ADEEC81FD81319687
:101DC000FD83EC83D8CE5F926F927F928F929F9229
:101DD000AF92BF92CF92DF92EF92FF920F931F9339
:101DE000CF93DF9385E694E00E948505EC01909304
:101DF0004B0480934A0450E040E06EE472E085E3D7
:101E000096E041DD50E040E06EE472E083EC95E066
:101E10003ADD1C161D060CF0AAC4EAEFF3E080E5DB
:101E2000DF011D928A95E9F7EF018F012FB7F89432
:101E30008091550490915604A0915704B091580494
:101E40002FBF80936D0490936E04A0936F04B093A2
:101E5000700485E694E00E94630597FD02C00C942F
:101E6000B4192FB7F8948091550490915604A0911D
:101E70005704B09158042FBF40916D0450916E04E7
:101E800060916F0470917004841B950BA60BB70BC7
:101E90004091690450916A0460916B0470916C04E4
:101EA00084179507A607B707A0F264EA72E085E6F3
:101EB00094E00CDE8AEF93E0E7DD7AE4E72E74E04D
:101EC000F72E10E06E0168816F3229F0111103C006
:101ED00085E396E0A8DC68816F3229F0113019F4AF
:101EE00083EC95E0A0DC2196D6018C918F3209F429
:101EF0001F5FEC16FD0631F785E396E05CDC70931E
:101F00006304609362046AEA72E085E694E0DEDDD1
:101F10008091620490916304C8DD65EB72E085E610
:101F200094E0D4DD63EC75E085E694E00E94190549
:101F30006CE472E085E694E000DDE0916204F091EB
:101F40006304ED33F10508F012C48827E555F04F1E
:101F50008F4F0C94E627AF13C7131914B713B71399
:101F6000B713B713B713B71353132D147E14FE14FE
:101F70007A15F915C1127E123B12F811B7137A16B1
:101F80000A179E1786111411A210B713B713B713AF
:101F9000B713551867186A186D1870187318511010
:101FA0007618E80FC618331938193D1946194F1914
:101FB000581961196A197319B7137C198F19921975
:101FC000951998199B19B713B713B713B7139E191F
:101FD00012E0C1E0D0E080916204909163048697A2
:101FE00009F0C5C31093630670E060E08FE496E0EB
:101FF000BDDBE0910802F0910902EE0FFF1FEF5DDB
:10200000FE4F859194919093620680936106909320
:10201000600680935F0680914D0690914E069093E6
:102020005C0680935B06D0935E06C0935D0665EA0E
:1020300075E08FE496E00E941905E0910402F091AA
:102040000502EE0FFF1FEF5DFE4F85919491909377
:102050006206809361069093600680935F066DEB45
:1020600075E08FE496E00E94190580914D069091ED
:102070004E06019790934E0680934D0680379E4FF3
:102080006CF4809157069091580690934E06809379
:102090004D0680915D048F5F80935D044EDB93DE7F
:1020A0009ACF12E0C1E0D0E0809162049091630485
:1020B000849709F05CC31093630670E060E08FE4DE
:1020C00096E054DBE0910002F0910102EE0FFF1F59
:1020D000EF5DFE4F85919491909362068093610627
:1020E0009093600680935F0680914D0690914E0616
:1020F00090935C0680935B06D0935E06C0935D066A
:1021000065EA75E08FE496E00E94190580914D061E
:1021100090914E06019790934E0680934D0680371E
:102120009E4F6CF4809157069091580690934E06FE
:1021300080934D0680915D048F5F80935D04FDDA8E
:1021400042DEB2CF32E0932E03E211E0C1E0D0E0F4
:1021500041E2E42E41E0F42E55E2C52E51E0D52EA9
:1021600060E4A62EB12C80916204909163048931C1
:10217000910519F0039709F0FAC29092630670E096
:1021800060E08FE496E0F2DAF80185919491909303
:102190006206809361069093600680935F0681EBF0
:1021A00095E009DB20914D0630914E0630935C0698
:1021B00020935B06D0935E06C0935D066230710586
:1021C000810591050CF464C763E373E08FE496E046
:1021D0007DDC81EB95E0EFDAF6016A30710581056F
:1021E00091050CF0F701859194919093620680938C
:1021F00061069093600680935F0661EB75E08FE463
:1022000096E00E94190580914D0690914E06019727
:102210008234FFEF9F070CF43EC790934E068093E5
:102220004D068BDAD0DD9FCFB2E09B2E09E211E0A4
:10223000C1E0D0E081E2E82E81E0F82E95E2C92EDF
:1022400091E0D92E20E4A22EB12C809162049091CD
:1022500063048831910519F0029709F088C29092C1
:10226000630670E060E08FE496E080DAF801859123
:102270009491909362068093610690936006809398
:102280005F0687EB95E097DA20914D0630914E0678
:1022900030935C0620935B06D0935E06C0935D0688
:1022A00062307105810591050CF4E5C664E173E0C7
:1022B0008FE496E00BDC87EB95E07DDAF6016A307F
:1022C0007105810591050CF0F7018591949190932A
:1022D0006206809361069093600680935F0667EBC9
:1022E00075E08FE496E00E94190580914D0690916B
:1022F0004E0601978833EFEF9E070CF4BFC690930C
:102300004E0680934D0619DA5EDD9FCF72E0972E60
:1023100007E211E0C1E0D0E0E1E2EE2EE1E0FE2EC6
:10232000F5E2CF2EF1E0DF2EA0E4AA2EB12C8091B1
:102330006204909163048731910519F0019709F0C7
:1023400016C29092630670E060E08FE496E00EDAC9
:10235000F801859194919093620680936106909321
:10236000600680935F068DEB95E025DA20914D069F
:1023700030914E0630935C0620935B06D0935E0648
:10238000C0935D0662307105810591050CF466C647
:1023900068EF72E08FE496E099DB8DEB95E00BDA65
:1023A000F6016A307105810591050CF0F701859100
:1023B0009491909362068093610690936006809357
:1023C0005F066DEB75E08FE496E00E941905809141
:1023D0004D0690914E0601978234BFEF9B070CF497
:1023E00040C690934E0680934D06A7D9ECDC9FCF54
:1023F00052E0D52EC5E2D1E001E010E060E4E62E27
:10240000F12C8091620490916304429709F0AFC16E
:10241000D092630670E060E08FE496E0A7D9FE01F9
:1024200085919491909362068093610690936006E3
:1024300080935F0680914D0690914E0690935C06C6
:1024400080935B0610935E0600935D068EEF90E02E
:102450000E94550980914D0690914E060197803B50
:10246000AFEF9A070CF43CC490934E0680934D0650
:1024700064D9A9DCC6CF32E0D32EC1E2D1E001E0BD
:1024800010E040E4E42EF12C80916204909163040A
:10249000419709F06CC1D092630670E060E08FE470
:1024A00096E064D9FE0185919491909362068093A1
:1024B00061069093600680935F0680914D0690912F
:1024C0004E0690935C0680935B0610935E06009325
:1024D0005D0684E091E00E94550980914D0690913F
:1024E0004E060197803B2FEF92070CF4EFC39093B9
:1024F0004E0680934D0621D966DCC6CF92E0D92ED8
:10250000C5E2D1E001E010E020E4E22EF12C809160
:10251000620490916304409709F029C1D092630648
:1025200070E060E08FE496E021D9FE0185919491FE
:1025300090936206809361069093600680935F0695
:1025400080914D0690914E0690935C0680935B06B9
:1025500010935E0600935D068BE091E00E945509A2
:1025600080914D0690914E060197803BFFEF9F07AB
:102570000CF4A2C390934E0680934D06DED823DC64
:10258000C6CFA2E05A2EC7E2D1E0B3E2CB2EB1E033
:10259000DB2E12E0A12EB12C01E2802E01E0902E64
:1025A00080E4682E712C80916204909163040F97EF
:1025B00009F0DDC05092630670E060E08FE496E0C1
:1025C000D5D8FE01E590F49060914D0670914E06CD
:1025D00000E110E020E130E050E040E08FE496E0E0
:1025E0000E948C09F601E590F49060914D0670917F
:1025F0004E066F5F7F4F0EE010E02EE030E041E0CE
:1026000050E08FE496E00E948C0950926306FE0130
:1026100085919491909362068093610690936006F1
:1026200080935F0680914D0690914E06039690939D
:102630005C0680935B06B0925E06A0925D066EED2E
:1026400072E08FE496E042DAF401859194919093E0
:102650006206809361069093600680935F06809186
:102660004D0690914E06419690935C0680935B06D2
:1026700081E090E090935E0680935D0683E191E0B7
:102680000E94550980914D0690914E0601978C3914
:10269000EFEF9E070CF406C390934E0680934D0611
:1026A0004CD891DB80CFE2E0DE2EC3E2D1E001E046
:1026B00010E0F7E2EF2EF1E0FF2E8091620490919E
:1026C0006304099709F053C0D092630670E060E09C
:1026D0008FE496E04BD8FE01859194919093620629
:1026E000809361069093600680935F0680914D060B
:1026F00090914E0690935C0680935B0610935E0665
:1027000000935D0662EC72E08FE496E0DFD9F7019A
:1027100085919491909362068093610690936006F0
:1027200080935F066BEC72E08FE496E0CFD98091E6
:102730004D0690914E06019790934E0680934D065C
:1027400080379E4F44F4809157069091580690939D
:102750004E0680934D060E949D0B35DBAECF64E69E
:1027600070E080E090E00E94B1060C940000DF91E0
:10277000CF911F910F91FF90EF90DF90CF90BF907E
:10278000AF909F908F907F906F905F900895109280
:102790004C0463EC75E08DEB95E09FD810924F04EC
:1027A00010925304109252048DEB95E004D82091BE
:1027B0005004309151048901330F220B330B06175B
:1027C000170728073907ECF080E490E090930B029C
:1027D00080930A0210924E0610924D0681E080937B
:1027E0004C04DF91CF911F910F91FF90EF90DF90FC
:1027F000CF90BF90AF909F908F907F906F905F90A1
:10280000A2C710920B0210920A0210924E0610926A
:102810004D06DF91CF911F910F91FF90EF90DF90C8
:10282000CF90BF90AF909F908F907F906F905F9070
:10283000ABC563EC75E087EB95E0DF91CF911F911D
:102840000F91FF90EF90DF90CF90BF90AF909F904F
:102850008F907F906F905F9040C870E060E08FE451
:1028600096E00E94B60B81E080936306E3E2F1E01C
:10287000859194919093620680936106909360068F
:1028800080935F068CE090E090935C0680935B06FB
:1028900010925E0610925D0689E191E00E94550952
:1028A000E7E2F1E08591949190936206809361064E
:1028B0009093600680935F0686E090E090935C06BC
:1028C00080935B0689E090E090935E0680935D06BE
:1028D00064ED72E08FE496E0F9D8DF91CF911F911B
:1028E0000F91FF90EF90DF90CF90BF90AF909F90AF
:1028F0008F907F906F905F900C949D0B70E060E0E4
:102900008FE496E00E94B60BC7E2D1E0FE01E590AD
:10291000F49000E110E020E130E050E040E070E0B1
:1029200060E08FE496E00E948C09E3E2F1E0E5903C
:10293000F4900EE010E02EE030E041E050E061E085
:1029400070E08FE496E00E948C0982E08093630639
:10295000FE01859194919093620680936106909315
:10296000600680935F0683E090E090935C0680931E
:102970005B0682E090E090935E0680935D066EEDCC
:1029800072E08FE496E0A2D881E080936306C1E212
:10299000D1E0FE0185919491909362068093610647
:1029A0009093600680935F0684E190E090935C06CC
:1029B00080935B0610925E0610925D0689E191E0BD
:1029C0000E945509FE01859194919093620680932F
:1029D00061069093600680935F068AE190E0909391
:1029E0005C0680935B0689E090E090935E0680939E
:1029F0005D0683E191E00E9455096FCF70E060E0D1
:102A00008FE496E00E94B60BC7E2D1E0FE01E590AC
:102A1000F49000E110E020E130E050E040E070E0B0
:102A200060E08FE496E00E948C09E3E2F1E0E5903B
:102A3000F4900EE010E02EE030E041E050E061E084
:102A400070E08FE496E00E948C0982E08093630638
:102A5000FE01859194919093620680936106909314
:102A6000600680935F0683E090E090935C0680931D
:102A70005B0682E090E090935E0680935D066EEDCB
:102A800072E08FE496E022D881E080936306C5E28D
:102A9000D1E0FE0185919491909362068093610646
:102AA0009093600680935F0604E110E010935C064B
:102AB00000935B0610925E0610925D0689E191E03C
:102AC0000E945509FE01859194919093620680932E
:102AD00061069093600680935F0610935C060093F6
:102AE0005B0689E090E090935E0680935D068BE044
:102AF00091E081CF70E060E08FE496E00E94B60B39
:102B0000C7E2D1E0FE01E590F49000E110E020E1A1
:102B100030E050E040E070E060E08FE496E00E943A
:102B20008C09E3E2F1E0E590F4900EE010E02EE095
:102B300030E041E050E061E070E08FE496E00E9418
:102B40008C0982E080936306FE01859194919093B5
:102B50006206809361069093600680935F0683E02F
:102B600090E090935C0680935B0682E090E0909307
:102B70005E0680935D066EED72E08FE496E00E9443
:102B8000660D81E080936306C1E2D1E0FE0185918C
:102B9000949190936206809361069093600680936F
:102BA0005F0684E190E090935C0680935B06109250
:102BB0005E0610925D0689E191E00E945509FE01D2
:102BC000859194919093620680936106909360063C
:102BD00080935F0687E190E090935C0680935B06AC
:102BE00089E090E090935E0680935D0684E091E03A
:102BF00002CF70E060E08FE496E00E94B60BC5E281
:102C0000D1E0FE012591349147E050E068E070E0AA
:102C100088E090E00E94EE09E7E2F1E0E590F490B0
:102C200003E010E02BE030E047E050E063E070E0CC
:102C30008FE496E00E948C0981E080936306FE0198
:102C400085919491909362068093610690936006BB
:102C500080935F0684E190E090935C0680935B062E
:102C600010925E0610925D0689E191E00E9455097E
:102C7000FE018591949190936206809361069093F2
:102C8000600680935F068AE190E090935C068093F3
:102C90005B0689E090E090935E0680935D068EEF80
:102CA00090E0A9CE70924E0660924D0680915D0430
:102CB0008F5F80935D04F4CCF0924E06E0924D0657
:102CC00080915D048F5F80935D0458CCF0924E0636
:102CD000E0924D0680915D048F5F80935D040BCC84
:102CE000F0924E06E0924D0680915D048F5F8093D6
:102CF0005D04BECB8DEB95E00E94DB0B6B01EB011D
:102D000081E08093630670E060E08FE496E00E94CB
:102D1000B60BE1E2F1E08591949190936206809385
:102D200061069093600680935F0610925C06109295
:102D30005B0610925E0610925D06C130D10549F522
:102D400060EE72E08FE496E00E94660D10925C06E1
:102D500010925B0688E090E090935E0680935D069B
:102D600066EE72E08FE496E00E94660D86E390E0E6
:102D700090934E0480934D04E5E2F1E085919491A7
:102D800090936206809361069093600680935F063D
:102D900014C087EF90E00E94550910925C061092D3
:102DA0005B0688E090E090935E0680935D0680EF7E
:102DB00090E00E9455092A97CCF2BAE0CB1AD108CC
:102DC000EAE5CE16D10490F48AE290E090934E04A6
:102DD00080934D04E7E2F1E085919491909362062F
:102DE000809361069093600680935F0682E08093F3
:102DF000630680914D0490914E0490935C068093FD
:102E00005B0681E090E090935E0680935D066DEB3B
:102E100075E08FC087EB95E00E94DB0B6B01EB0147
:102E200081E08093630670E060E08FE496E00E94AA
:102E3000B60BE9E2F1E0859194919093620680935C
:102E400061069093600680935F0610925C06109274
:102E50005B0610925E0610925D06C130D10549F501
:102E600060EE72E08FE496E00E94660D10925C06C0
:102E700010925B0688E090E090935E0680935D067A
:102E80006CEE72E08FE496E00E94660D86E390E0BF
:102E900090934E0480934D04E5E2F1E08591949186
:102EA00090936206809361069093600680935F061C
:102EB00014C087EF90E00E94550910925C061092B2
:102EC0005B0688E090E090935E0680935D0688EE56
:102ED00090E00E9455092A97CCF2FAE0CF1AD10867
:102EE0002AE5C216D10490F48AE290E090934E0451
:102EF00080934D04E7E2F1E085919491909362060E
:102F0000809361069093600680935F0682E08093D1
:102F1000630680914D0490914E0490935C068093DB
:102F20005B0681E090E090935E0680935D0667EB20
:102F300075E08FE496E00E941905CFCC81EB95E017
:102F40000E94DB0B6B01EB0181E08093630670E074
:102F500060E08FE496E00E94B60BE3E2F1E0859139
:102F6000949190936206809361069093600680939B
:102F70005F0610925C0610925B0610925E0610923D
:102F80005D06C130D10549F560EE72E08FE496E050
:102F90000E94660D10925C0610925B0688E090E03D
:102FA00090935E0680935D0664EF72E08FE496E096
:102FB0000E94660D86E390E090934E0480934D044A
:102FC000E5E2F1E085919491909362068093610629
:102FD0009093600680935F0614C087EF90E00E9494
:102FE000550910925C0610925B0688E090E0909381
:102FF0005E0680935D0684EE90E00E9455092A9754
:10300000CCF28AE0C81AD108AAE5CA16D10490F415
:103010008AE290E090934E0480934D04E7E2F1E061
:1030200085919491909362068093610690936006D7
:1030300080935F0682E08093630680914D049091B7
:103040004E0490935C0680935B0681E090E0909341
:103050005E0680935D0661EB75E06BCF67E073E021
:1030600099C9B0924E06A0924D0680915D048F5F83
:1030700080935D04BAC964E273E01AC9B0924E0647
:10308000A0924D0680915D048F5F80935D043BC9E3
:103090006FE373E09BC8B0924E06A0924D068091FC
:1030A0005D048F5F80935D04BCC88EE190E0DF918A
:1030B000CF911F910F91FF90EF90DF90CF90BF9035
:1030C000AF909F908F907F906F905F90CCC58FE175
:1030D00090E0EDCF80E290E0EACF81E290E0E7CFB0
:1030E00082E290E0E4CF83E290E0E1CF81E0809360
:1030F000630670E060E08FE496E00E94B60BE0911A
:103100000802F0910902EE0FFF1FEF5DFE4F85915F
:1031100094919093620680936106909360068093E9
:103120005F068091F8039091F90390935C06809379
:103130005B0610925E0610925D0665EA75E08FE40C
:1031400096E00E941905E0910602F0910702EE0F49
:10315000FF1FEF5DFE4F85919491909362068093DF
:1031600061069093600680935F068091F6039091CC
:10317000F70390935C0680935B0688E090E0909361
:103180005E0680935D066FE975E0D3CE70E060E087
:103190008FE496E00E94B60B81E080936306E09195
:1031A0000802F0910902EE0FFF1FEF5DFE4F8591BF
:1031B0009491909362068093610690936006809349
:1031C0005F068091F8039091F90390935C068093D9
:1031D0005B0610925E0610925D0665EA75E08FE46C
:1031E00096E00E941905E0910602F0910702EE0FA9
:1031F000FF1FEF5DFE4F859194919093620680933F
:1032000061069093600680935F068091F60390912B
:10321000F70390935C0680935B0688E090E09093C0
:103220005E0680935D066FE975E08FE496E00E948C
:103230001905E0910402F0910502EE0FFF1FEF5D0A
:10324000FE4F8591949190936206809361069093CE
:10325000600680935F0682E080936306809102029D
:1032600090910302CACD63EC75E085EA95E0E5CA6A
:1032700063EC75E08FE995E0E0CA83EC95E00E948D
:10328000DB0B709309026093080271CA83EC95E02E
:103290000E94DB0B709307026093060268CA83ECFE
:1032A00095E00E94DB0B70930502609304025FCAF5
:1032B00083EC95E00E94DB0B7093F9036093F803B5
:1032C00056CA83EC95E00E94DB0B7093F703609382
:1032D000F6034DCA83EC95E00E94DB0B709303026A
:1032E0006093020244CA83EC95E00E94DB0B70936A
:1032F0000102609300023BCA82E390E0DF91CF912C
:103300001F910F91FF90EF90DF90CF90BF90AF9003
:103310009F908F907F906F905F900C946B0D83E3E4
:1033200090E0ECCF84E390E0E9CF85E390E0E6CF56
:1033300086E390E0E3CF87E390E0E0CF63EC75E0D5
:103340008DEB95E00E946D0CDF91CF911F910F9155
:10335000FF90EF90DF90CF90BF90AF909F908F90B5
:103360007F906F905F90D3C38A30910511F40C94D5
:10337000550FF80181938F01F4E009341F0711F014
:103380000C94160F0C94550F2F923F924F925F9210
:103390006F927F928F929F92AF92BF92CF92DF9265
:1033A000EF92FF920F931F93CF93DF9310925304EA
:1033B0001092520487E2C82E81E0D82E93E2A92E03
:1033C00091E0B92E25E2622E21E0722E32E0332EFA
:1033D0002224239446E1442E512C80915204909152
:1033E0005304803D97400CF09BC180905004909016
:1033F000510480914D0690914E068134910524F43C
:1034000080914F04882341F08DEB95E00E94DB0B07
:10341000709351046093500470E060E08FE496E094
:103420000E94B60B80914F048111A4C0C0910A0282
:10343000D0910B02F601E590F49060914D067091E9
:103440004E066C0F7D1F01E010E020E130E044E00B
:1034500050E08FE496E00E948C09F601E590F4902C
:1034600060914D0670914E066C0F7D1F6F5F7F4F10
:1034700004E010E020E130E045E050E08FE496E029
:103480000E948C09F501E590F49060914D067091D1
:103490004E066C0F7D1F665F7F4F02E010E025E057
:1034A00030E045E050E08FE496E00E948C09F501A1
:1034B000E590F49060914D0670914E066C0F7D1F63
:1034C00001E010E028E130E048E050E08FE496E0D1
:1034D0000E948C09F501E590F49060914D06709181
:1034E0004E066C0F7D1F04E010E029E130E049E05A
:1034F00050E08FE496E00E948C09F301259134910D
:1035000080914D0690914E068C0F9D1F42E050E039
:103510006DE070E005960E94EE09F301259134916B
:1035200080914D0690914E068C0F9D1F42E050E019
:103530006DE070E044960E94EE0930926306F60159
:1035400085919491909362068093610690936006B2
:1035500080935F0680914D0690914E06815B9F4F50
:1035600090935C0680935B0682E090E090935E0609
:1035700080935D06F601E590F49000E110E020E113
:1035800030E050E040E070E060E08FE496E00E94C0
:103590008C09F501E590F4900EE010E02EE030E0AB
:1035A00041E050E061E070E08FE496E00E948C0919
:1035B00030926306F6018591949190936206809310
:1035C00061069093600680935F0683E090E090939D
:1035D0005C0680935B0682E090E090935E068093A9
:1035E0005D066EED72E08FE496E00E94660D8091BC
:1035F0004D0690914E060196873491050CF08DC0D2
:1036000090934E0680934D0680910A0290910B0292
:10361000029690930B0280930A028134910514F074
:1036200020924F049AE0891691048CF484E290E091
:1036300090934E0480934D04F3018591949190935F
:103640006206809361069093600680935F06C401D2
:103650000A978A35910588F48DE190E090934E04A5
:1036600080934D04F6018591949190936206809326
:1036700061069093600680935F06C40184569109A9
:103680008438934078F450924E0440924D04F601F1
:103690008591949190936206809361069093600661
:1036A00080935F063092630680914D0490914E04A2
:1036B00090935C0680935B0681E090E090935E06B9
:1036C00080935D0680914D0690914E068134910560
:1036D0002CF480914F04B401882321F060915004B0
:1036E000709151048FE496E00E940C0D0E949D0B96
:1036F0000E94E30E80916204909163048C339105E3
:1037000011F0019769F4809152049091530401964D
:10371000909353048093520460CE8EE190E070CF7A
:10372000DF91CF911F910F91FF90EF90DF90CF909D
:10373000BF90AF909F908F907F906F905F904F90D1
:103740003F902F9008952F923F924F925F926F92E9
:103750007F928F929F92AF92BF92CF92DF92EF9221
:10376000FF920F931F93CF93DF9310925304109205
:10377000520487E2C82E81E0D82E93E2A92E91E070
:10378000B92E25E2622E21E0722E32E0332E222461
:10379000239446E1442E512C80915204909153047D
:1037A000803D97400CF0A0C180905004909051044F
:1037B00080914D0690914E06803C9F4F24F0809161
:1037C0004F04882341F08DEB95E00E94DB0B709352
:1037D00051046093500470E060E08FE496E00E9432
:1037E000B60B80914F048111A8C0C0910A02D091FC
:1037F0000B02F601E590F49060914D0670914E0633
:103800006C0F7D1F675F7F4F01E010E020E130E02B
:1038100044E050E08FE496E00E948C09F601E590C8
:10382000F49060914D0670914E066C0F7D1F685F9D
:103830007F4F04E010E020E130E045E050E08FE40D
:1038400096E00E948C09F501E590F49060914D0698
:1038500070914E066C0F7D1F665F7F4F02E010E097
:1038600025E030E045E050E08FE496E00E948C09CE
:10387000F501E590F49060914D0670914E066C0F45
:103880007D1F6F5F7F4F01E010E028E130E048E0EE
:1038900050E08FE496E00E948C09F501E590F490E9
:1038A00060914D0670914E066C0F7D1F04E010E094
:1038B00029E130E049E050E08FE496E00E948C0975
:1038C000F3012591349180914D0690914E068C0F15
:1038D0009D1F42E050E06DE070E005960E94EE0909
:1038E000F3012591349180914D0690914E068C0FF5
:1038F0009D1F42E050E06DE070E044960E94EE09AA
:1039000030926306F60185919491909362068093BC
:1039100061069093600680935F0680914D069091BA
:103920004E06815B9F4F90935C0680935B0682E01E
:1039300090E090935E0680935D06F601E590F4902A
:1039400000E110E020E130E050E040E070E060E0B5
:103950008FE496E00E948C09F501E590F4900EE06A
:1039600010E02EE030E041E050E061E070E08FE4F4
:1039700096E00E948C0930926306F601859194913D
:1039800090936206809361069093600680935F0631
:1039900083E090E090935C0680935B0682E090E089
:1039A00090935E0680935D066EED72E08FE496E084
:1039B0000E94660D80914D0690914E0601978A3BBC
:1039C0002FEF92070CF48DC090934E0680934D0616
:1039D00080910A0290910B02029790930B028093C0
:1039E0000A021816190614F020924F049AE089165C
:1039F00091048CF484E290E090934E0480934D0403
:103A0000F30185919491909362068093610690935F
:103A1000600680935F06C4010A978A35910588F491
:103A20008DE190E090934E0480934D04F6018591D2
:103A300094919093620680936106909360068093C0
:103A40005F06C401845691098438934078F45092FB
:103A50004E0440924D04F601859194919093620634
:103A6000809361069093600680935F0630926306B0
:103A700080914D0490914E0490935C0680935B0678
:103A800081E090E090935E0680935D0680914D0604
:103A900090914E06803C9F4F2CF080914F04B401D2
:103AA000882321F060915004709151048FE496E0D6
:103AB0000E940C0D0E949D0B0E94E30E80916204F7
:103AC000909163048C33910511F0019769F4809112
:103AD000520490915304019690935304809352049E
:103AE0005BCE8EE190E070CFDF91CF911F910F916F
:103AF000FF90EF90DF90CF90BF90AF909F908F900E
:103B00007F906F905F904F903F902F9008959F927D
:103B1000AF92BF92CF92DF92EF92FF920F931F93DB
:103B2000CF93DF938DEB95E00E94DB0B70935104F4
:103B30006093500482E0982E03E211E0EE24E394B7
:103B4000F12C27E2C22E21E0D22E3FE0A32EB12C91
:103B500080916204909163048C33910519F0019770
:103B600009F075C08091500490915104019709F4B7
:103B700058C0D0E0C0E09092630670E060E08FE44F
:103B800096E00E94B60BF80185919491909362069D
:103B9000809361069093600680935F0680914D0646
:103BA00090914E0690935C0680935B06F0925E06C1
:103BB000E0925D0662EC72E08FE496E00E94660D92
:103BC000F60185919491909362068093610690939B
:103BD000600680935F066BEC72E08FE496E00E94D3
:103BE000660D80914D0690914E06019780372EEF1D
:103BF00092070CF190934E0680934D060E949D0B08
:103C00000E94E30E80916204909163048C339105CD
:103C100011F00197E1F42196CC3281E0D8070CF441
:103C2000AACF80914C04882361F08AE493E00E943B
:103C3000440D89DD8DCFB0924E06A0924D0621969F
:103C4000DDCF88E593E00E94440D9EDB81CFDF91BC
:103C5000CF911F910F91FF90EF90DF90CF90BF9089
:103C6000AF909F900895BF92CF92DF92EF92FF9214
:103C70000F931F93CF93DF938C014E9722E1289FE0
:103C8000E001299FD00D1124C753DA4F92E0B92EDD
:103C90007E012AE0E20EF11CCC24C394D12C809149
:103CA0006204909163048017910709F048C0B092B4
:103CB000630670E060E08FE496E00E94B60BD701E7
:103CC000ED91FC91EE0FFF1FEF5DFE4F85919491FA
:103CD00090936206809361069093600680935F06DE
:103CE00080914D0690914E0690935C0680935B0602
:103CF000D0925E06C0925D06BE018FE496E00E94FF
:103D0000190580914D0690914E06019790934E06AD
:103D100080934D0680379E4F6CF4809157069091AA
:103D2000580690934E0680934D0680915D048F5FF8
:103D300080935D040E949D0B0E94E30EB0CFDF9143
:103D4000CF911F910F91FF90EF90DF90CF90BF9098
:103D500008951F920F920FB60F9211240BB60F9277
:103D60002F933F934F935F936F937F938F939F9383
:103D7000AF93BF93EF93FF9385E694E00E94A30572
:103D8000FF91EF91BF91AF919F918F917F916F9133
:103D90005F914F913F912F910F900BBE0F900FBEEF
:103DA0000F901F9018951F920F920FB60F9211242B
:103DB0000BB60F922F938F939F93EF93FF93E09106
:103DC0007504F09176048081E0917B04F0917C048D
:103DD00082FD1DC0908180917E048F5F8F73209142
:103DE0007F04821741F0E0917E04F0E0EB59FB4F35
:103DF000958F80937E04FF91EF919F918F912F91EA
:103E00000F900BBE0F900FBE0F901F9018958081E2
:103E1000F2CF1F920F920FB60F9211240BB60F9292
:103E20002F933F934F935F936F937F938F939F93C2
:103E3000AF93BF93EF93FF9382E095E00E94A305B9
:103E4000FF91EF91BF91AF919F918F917F916F9172
:103E50005F914F913F912F910F900BBE0F900FBE2E
:103E60000F901F9018951F920F920FB60F9211246A
:103E70000BB60F922F938F939F93EF93FF93E09145
:103E80001205F09113058081E0911805F091190554
:103E900082FD1DC0908180911B058F5F8F732091E3
:103EA0001C05821741F0E0911B05F0E0EE5FFA4F30
:103EB000958F80931B05FF91EF919F918F912F918B
:103EC0000F900BBE0F900FBE0F901F901895808122
:103ED000F2CF1F920F920FB60F9211242F933F93A0
:103EE0008F939F93AF93BF93809155049091560405
:103EF000A0915704B09158043091540423E0230F4B
:103F00002D3758F50196A11DB11D209354048093BF
:103F1000550490935604A0935704B093580480918D
:103F2000590490915A04A0915B04B0915C040196ED
:103F3000A11DB11D8093590490935A04A0935B0472
:103F4000B0935C04BF91AF919F918F913F912F915E
:103F50000F900FBE0F901F90189526E8230F029622
:103F6000A11DB11DD2CF1F920F920FB60F92112437
:103F70000BB60F921F932F933F934F935F936F93C3
:103F80007F938F939F93AF93BF93CF93DF93EF93E1
:103F9000FF93E0915E04F0915F04A3A1B4A18C9122
:103FA00097A5892B8C93A1A1B2A18C9196A5892B61
:103FB0008C93348D8EE591E0393010F48CEB92E0E7
:103FC00024AD88589F4F02C0880F991F2A95E2F7A9
:103FD000CC9724AD2F5F24AF458D241708F4C3C0C0
:103FE00014AE23AD2F5F23AF2317B8F013AE20A17B
:103FF000222329F0368D21E0231B268F10A2268D47
:10400000A1E0B0E0A21BB1091C96AA0FBB1FAE0F26
:10401000BF1F2D913C9136AF25AFA5ADB6AD9093A6
:104020008700809386001092850010928400C3A1BF
:10403000D4A1988187A5809589238883C1A1D2A125
:10404000988186A580958923888395B185A5892B3C
:1040500024AD222309F4DEC0378D20E0321709F4A5
:10406000BFC00D9002B885B995B90D9002B885B959
:1040700095B90D9002B885B995B90D9002B885B97A
:1040800095B90D9002B885B995B90D9002B885B96A
:1040900095B90D9002B885B995B90D9002B885B95A
:1040A00095B90D9002B885B995B90D9002B885B94A
:1040B00095B90D9002B885B995B90D9002B885B93A
:1040C00095B90D9002B885B995B90D9002B885B92A
:1040D00095B90D9002B885B995B90D9002B885B91A
:1040E00095B90D9002B885B995B90D9002B885B90A
:1040F00095B90D9002B885B995B90D9002B885B9FA
:1041000095B90D9002B885B995B90D9002B885B9E9
:1041100095B90D9002B885B995B90D9002B885B9D9
:1041200095B90D9002B885B995B90D9002B885B9C9
:1041300095B90D9002B885B995B90D9002B885B9B9
:1041400095B90D9002B885B995B90D9002B885B9A9
:1041500095B90D9002B885B995B90D9002B885B999
:1041600095B92F5F7BCF24AD213009F056CF33AD09
:10417000A5A1B6A120A930FF23C03C91232B2C93ED
:1041800033ADA7A1B0A521A931FF1EC03C91232BBF
:104190002C9333ADA1A5B2A522A932FF19C03C9141
:1041A000232B2C93248D293008F437CF33ADA3A5CE
:1041B000B4A523A933FF10C03C91232B2C932DCF02
:1041C0003C9120952323DBCF3C9120952323E0CF06
:1041D0003C9120952323E5CF3C9120952323EECFDE
:1041E000B6AFA5AF86B386BBFF91EF91DF91CF91BC
:1041F000BF91AF919F918F917F916F915F914F91FF
:104200003F912F911F910F900BBE0F900FBE0F90FB
:104210001F90189510E0412F50E0278D60E2269FF7
:104220009001112442175307ECF6BA01620F731F75
:104230002A0F3B1FE901C60FD71F2881C4E02C9F1E
:10424000900111242C706A0F7B1FEB016881D0E173
:104250006D9FB00111246073262B4A0F5B1FEA018A
:104260004881D0E44D9FA0011124242B22B985B9A7
:1042700095B91F5FD0CFCF93DF931092680410924F
:10428000670448EE53E060E070E0409369045093A7
:104290006A0460936B0470936C0482E292E09093E2
:1042A0006604809365042DEC30E030937204209313
:1042B00071042CEC30E0309374042093730428ECE8
:1042C00030E0309376042093750429EC30E030938D
:1042D0007804209377042AEC30E030937A0420931A
:1042E00079042EEC30E030937C0420937B04109210
:1042F0007E0410927F041092800410928104109228
:104300000505109204054093060550930705609338
:10431000080570930905909303058093020585ECC9
:1043200090E090930F0580930E0584EC90E09093BD
:1043300011058093100580EC90E090931305809315
:10434000120581EC90E0909315058093140582ECA2
:1043500090E0909317058093160586EC90E090937B
:1043600019058093180510921B0510921C051092D8
:104370001D0510921E05109252061092510620E45F
:1043800030E0309354062093530680E190E0909300
:1043900056068093550630935806209357069093FF
:1043A0005A06809359061092640610925C06109289
:1043B0005B0610925E0610925D0681E080936306B4
:1043C0002FEF3FEF30936206209361063093600633
:1043D00020935F06809365061092660684E392E060
:1043E0009093500680934F0688E080936B0682E09E
:1043F00080936E0680E09CE0F1D5909368068093F0
:104400006706009709F490C020E03CE0FC01A90198
:10441000119241505040E1F79A5F90936A06809361
:10442000690686E38093860687E38093870688E3A0
:10443000809388068BE08093830689E380938406CB
:1044400089E080938506E4E2F8E0E491E0937C065D
:10445000EDEFF7E0E491F0E0EE0FFF1FE655F84FC7
:10446000859194919093710680937006E2E5F8E04F
:10447000E491E0937D06EDECF7E0E491F0E0EE0FDF
:10448000FF1FE655F84F85919491909373068093A2
:104490007206E2E2F8E0E491E0937E06EAEFF7E0EC
:1044A000E491F0E0EE0FFF1FE655F84F85919491EF
:1044B0009093750680937406EFE4F8E0E491E0933E
:1044C0007F06EBEFF7E0E491F0E0EE0FFF1FE6551B
:1044D000F84F859194919093770680937606E0E566
:1044E000F8E0E491E0938006ECEFF7E0E491F0E08F
:1044F000EE0FFF1FE655F84F859194919093790642
:1045000080937806E1E5F8E0E491E093810684E0A9
:1045100080936C0683E080938B0687E080938A0605
:1045200010926F0610926D0680E490E090934E0614
:1045300080934D0665E673E087E496E00E948D0C5B
:104540006EE472E081E496E00E948D0C6DE673E00B
:104550008BE396E00E948D0C6EE472E085E396E0BA
:104560000E948D0CC9ECD5E06EE472E0CE010E9491
:104570008D0C629656E0C533D507B1F76EE472E054
:1045800083EC95E00E948D0C64E773E08DEB95E081
:104590000E948D0C67E773E087EB95E00E948D0C1D
:1045A00068E873E081EB95E00E948D0C6EE472E0A8
:1045B0008BEA95E00E948D0C6AE773E085EA95E04E
:1045C0000E948D0C62E873E08FE995E0DF91CF9156
:1045D0000C948D0CCF93DF93CDB7DEB7E0970FB679
:1045E000F894DEBF0FBECDBF789484B5826084BDE1
:1045F00084B5816084BD85B5826085BD85B58160E7
:1046000085BD80916E00816080936E001092810064
:10461000809181008260809381008091810081601F
:1046200080938100809180008160809380008091E0
:10463000B10084608093B1008091B000816080936C
:10464000B0008091910082608093910080919100F0
:1046500081608093910080919000816080939000B0
:104660008091A10082608093A1008091A10081606F
:104670008093A1008091A00081608093A000809130
:1046800021018260809321018091210181608093CA
:1046900021018091200181608093200180917A0026
:1046A000846080937A0080917A00826080937A009F
:1046B00080917A00816080937A0080917A0080688E
:1046C00080937A001092C10082E095E00E946B0412
:1046D00085E694E00E946B0460E08AE30E945B063A
:1046E0008AE30E94920461E08CE30E945B068CE303
:1046F0000E94920409EC15E0D12CC12CB12CA12C04
:104700008EE492E0E82E6AE873E085E694E00E9489
:10471000660DB50185E694E00E940C0D87EA93E0F2
:104720000E94440D9E2C6EE472E0CE0185960E949C
:104730008D0C6EE472E0CE014F960E948D0C6EE4FB
:1047400072E0CE0149960E948D0C6EE472E0CE01BB
:1047500043960E948D0C6EE472E0CE010D960E948D
:104760008D0C6EE472E0CE0107960E948D0C6EE413
:1047700072E0CE0101960E948D0C10925D0499208A
:1047800099F0F0905D04C6018F0D911D0E94690D96
:10479000982E882329F0682FCE0185960E94130C4D
:1047A000F394F0925D04EBCFBE016B5D7F4FC801C7
:1047B0000E946D0C6DE973E085E694E00E94660D41
:1047C000B80185E694E00E9419056CE472E085E684
:1047D00094E00E949D0C10925D04F0905D048F2D7A
:1047E00090E0C2968C0D9D1D0E94690D982E882325
:1047F00029F0682FCE014F960E94130CF394F0928B
:104800005D049110EACFCE014F960E94DB0BF801B8
:10481000778366836CEB73E085E694E00E94660D17
:10482000F801868197810E94550D10925D04F090E9
:104830005D048F2D90E0C7968C0D9D1D0E94690D23
:10484000982E882329F0682FCE0149960E94130CD8
:10485000F394F0925D049110EACFCE0149960E9444
:10486000DB0BF8017187608764EC73E085E694E008
:104870000E94660DF801808591850E94550D109269
:104880005D04F0905D048F2D90E0CC968C0D9D1D05
:104890000E94690D982E882329F0682FCE01439637
:1048A0000E94130CF394F0925D049110EACFCE01B4
:1048B00043960E94DB0BF801738762876BEC73E011
:1048C00085E694E00E94660DF801828593850E943A
:1048D000550D10925D04F0905D048F2D90E08F5B7C
:1048E0009F4F8C0D9D1D0E94690D982E882329F0E5
:1048F000682FCE010D960E94130CF394F0925D0484
:104900009110E9CFCE010D960E94DB0BF80175875F
:10491000648765ED73E085E694E00E94660DF8011A
:10492000848595850E94550D10925D04F0905D047C
:104930008F2D90E08A5B9F4F8C0D9D1D0E94690D0D
:10494000982E882329F0682FCE0107960E94130C19
:10495000F394F0925D049110E9CFCE0107960E9486
:10496000DB0BF8017787668760EE73E085E694E0FD
:104970000E94660DF801868597850E94550D10925C
:104980005D04F0905D048F2D90E0855B9F4F8C0D52
:104990009D1D0E94690D982E882329F0682FCE0155
:1049A00001960E94130CF394F0925D049110E9CFEC
:1049B000CE0101960E94DB0BF801718B608B6DEECE
:1049C00073E085E694E00E94660DF8018089918984
:1049D0000E94550D10925D04CE0101960E94E60BD7
:1049E000CE0107960E94E60BCE010D960E94E60BC3
:1049F000CE0143960E94E60BCE0149960E94E60B3B
:104A0000CE014F960E94E60BCE0185960E94E60BE2
:104A100064E670E080E090E00E94B106FFEFAF1A1C
:104A2000BF0A0E5E1F4F24E6C20ED11C36E0A3164D
:104A3000B10409F068CE84EF91E00E94690D8530E1
:104A400028F060E084EF91E00E94670D10926D06FF
:104A50008091690690916A0690938D0680938C06EA
:104A60008FE496E090935F0480935E0461E0809110
:104A700083060E945B0695B180917C068095892310
:104A800085B961E0809184060E945B06E091700622
:104A9000F0917106908180917D06809589238083B5
:104AA00061E0809185060E945B06E0917206F091BC
:104AB0007306808190917E06892B808361E08091CE
:104AC00086060E945B06E0917406F091750690815F
:104AD00080917F0680958923808361E0809187069D
:104AE0000E945B06E0917606F091770690818091B6
:104AF000800680958923808361E0809188060E94EA
:104B00005B06E0917806F0917906908180918106AC
:104B100080958923808380916B06893078F061E0ED
:104B2000809189060E945B06E0917A06F0917B06EF
:104B30009081809182068095892380838CEF81B952
:104B400012B892E09093800089E18093810024E67E
:104B500030E0309387002093860080916F00816061
:104B600080936F00789410926506909363066CE2D0
:104B7000A62EBB24B394212C76E0372E412C512C49
:104B800088248A94912C70E060E08FE496E00E9483
:104B9000B60B4FE4642E47E0742E5CE0C52E52E065
:104BA000D52EF301E590F490F6014181042E000C1E
:104BB000550B6081062E000C770B05E010E025E018
:104BC00030E08FE496E00E948C09F601928120810A
:104BD000290F208343818181840F8183222361F007
:104BE000022E000C330B60915706709158066150ED
:104BF00071092617370719F49195F60192838823D6
:104C000061F0082E000C990B2091590630915A063C
:104C1000215031098217930719F44195F601438316
:104C2000F2E06F0E711C24E0C20ED11C48E152E08C
:104C30004C155D0509F0B5CF609160047091610479
:104C4000072E000C880B990BA2019101A3D197FFAD
:104C500003C07A5F8F4F9F4F262FC72ED82EE92E85
:104C6000FF24E7FCFA9452E0C516D104E104F104F4
:104C700009F4DAC06CF4C114D104E104F104C1F008
:104C8000CA94CD28CE28CF28B9F0209580E012C054
:104C900033E0C316D104E104F10409F4C0C044E0D8
:104CA000C416D104E104F10481F72FEF80E007C0BE
:104CB000862F20E06FEF03C0609520E08FEFF401B6
:104CC000E61BF109A401481B5109CA01A401421BBA
:104CD0005109E095EBA71CA6EBA5FCA5EB5BF94FF2
:104CE0002491E82FE095EDA71EA6EDA5FEA5EB5BB0
:104CF000F94F8491F42FF095FFA718AAEFA5F8A912
:104D0000EB5BF94FE49130E090E04E2F50E0F90179
:104D1000FE2FEE27F295F07FBC017695762F662761
:104D200077956795E62BF72BBA01660F771FE62B71
:104D3000F72B13E0559547951A95E1F7E42BF52BE2
:104D4000322F222722273870E22BF32B23E0880F03
:104D5000991F2A95E1F780769927E82BF92BF09394
:104D60006206E0936106F0936006E0935F0680912F
:104D70004D0690914E0690935C0680935B0621E071
:104D800030E030935E0620935D0685E497E00E9454
:104D9000550980914D0690914E06019790934E06CD
:104DA00080934D0680379E4F44F480915706909132
:104DB000580690934E0680934D0680916004909122
:104DC00061049C01295F3F4F211546E0340774F5CB
:104DD00030936104209360040E949D0B51E0A51A5A
:104DE000B10809F0D0CE70E060E08FE496E00E9458
:104DF000B60B0E949D0B8CE390E09093630480932C
:104E0000620411E00E94E30E80916404811104C0E9
:104E10000E94871D109364040E943006F3CF862FF2
:104E200080952FEF60E04BCF8FEFFCCF895F9540EF
:104E30009093610480936004CFCFCF93DF938FE989
:104E400095E00E94E60B85EA95E00E94E60B8BEA6E
:104E500095E00E94E60B81EB95E00E94E60B87EB64
:104E600095E00E94E60B8DEB95E00E94E60B83EC4B
:104E700095E00E94E60BC5E3D6E06297CE010E9462
:104E8000E60B85E0C93CD807C1F785E396E00E94B0
:104E9000E60B8BE396E00E94E60B81E496E00E942D
:104EA000E60B87E496E0DF91CF910C94E60B1F931D
:104EB000FC0199278827BC01E89411911032E9F38D
:104EC000193010F01E30C8F31B3249F01D3241F486
:104ED000689405C012D0610F711D811D911D119143
:104EE00010531A30B8F33EF4909580957095619503
:104EF0007F4F8F4F9F4F1F910895592F482F372F66
:104F0000262F660F771F881F991F660F771F881F30
:104F1000991F620F731F841F951F660F771F881FCD
:104F2000991F0895F999FECF92BD81BDF89A9927EE
:104F300080B50895262FF999FECF1FBA92BD81BD85
:104F400020BD0FB6F894FA9AF99A0FBE019608950B
:104F5000A1E21A2EAA1BBB1BFD010DC0AA1FBB1F7D
:104F6000EE1FFF1FA217B307E407F50720F0A21BEF
:104F7000B30BE40BF50B661F771F881F991F1A945C
:104F800069F760957095809590959B01AC01BD0186
:104F9000CF010895052E97FB16F400940FD057FD0E
:104FA00005D0D6DF07FC02D046F408C050954095E6
:104FB000309521953F4F4F4F5F4F089590958095C5
:104FC000709561957F4F8F4F9F4F0895EE0FFF1F94
:104FD000881F8BBF0790F691E02D19940F931F93B4
:104FE000CF93DF938230910510F482E090E0E0915E
:104FF0009006F091910630E020E0B0E0A0E030971C
:1050000099F42115310509F44AC0281B390B2430C5
:105010003105D8F58A819B816115710589F1FB0104
:1050200093838283FE0111C04081518102811381EB
:1050300048175907E0F04817590799F4109761F09D
:1050400012960C93129713961C933296CF01DF9110
:10505000CF911F910F9108950093900610939106A0
:10506000F4CF2115310551F04217530738F0A9014B
:10507000DB019A01BD01DF01F801C1CFEF01F9CFDA
:105080009093910680939006CDCFFE01E20FF31F1F
:10509000819391932250310939832883D7CF20916E
:1050A0008E0630918F06232B41F420911A02309105
:1050B0001B0230938F0620938E06209118023091A8
:1050C00019022115310541F42DB73EB740911C025C
:1050D00050911D02241B350BE0918E06F0918F0636
:1050E000E217F307A0F42E1B3F0B2817390778F0BF
:1050F000AC014E5F5F4F2417350748F04E0F5F1F1E
:1051000050938F0640938E06819391939FCFF0E04A
:10511000E0E09CCFCF93DF930097E9F0FC0132975A
:1051200013821282A0919006B0919106ED0130E0B9
:1051300020E01097A1F420813181820F931F2091EC
:105140008E0630918F062817390709F061C0F09359
:105150008F06E0938E06DF91CF910895EA01CE1776
:10516000DF07E8F54A815B819E0141155105B1F7E2
:10517000E901FB83EA8349915991C40FD51FEC17CC
:10518000FD0761F4808191810296840F951FE901EA
:1051900099838883828193819B838A83F0E0E0E016
:1051A00012968D919C9113970097B9F52D913C9192
:1051B0001197CD010296820F931F20918E06309198
:1051C0008F062817390739F6309751F51092910656
:1051D00010929006B0938F06A0938E06BCCFD38317
:1051E000C28340815181840F951FC817D90761F48C
:1051F0004E5F5F4F88819981480F591F51834083CB
:105200008A819B81938382832115310509F0B0CF78
:10521000F0939106E09390069ECFFD01DC01C0CF94
:1052200013821282D7CF4F925F926F927F928F92AA
:105230009F92AF92BF92CF92DF92EF92FF920F9325
:105240001F93CF93DF938C01009791F4CB01DF91F3
:10525000CF911F910F91FF90EF90DF90CF90BF9073
:10526000AF909F908F907F906F905F904F90B6CE51
:10527000FC01E60FF71F9C0122503109E217F307EA
:1052800008F4AAC0D901CD91DC911197C617D707B0
:1052900018F1C530D10570F0CE0104978617970735
:1052A00048F0C61BD70B2297C193D1936D937C9383
:1052B000CF0130DFC801DF91CF911F910F91FF9097
:1052C000EF90DF90CF90BF90AF909F908F907F90A6
:1052D0006F905F904F9008955B01AC1ABD0A4C012E
:1052E0008C0E9D1EA0919006B0919106512C412CE0
:1052F000F12CE12C109731F580918E0690918F065C
:105300008815990509F05CC04616570608F058C084
:105310008091180290911902009741F48DB79EB7C1
:1053200040911C0250911D02841B950BE817F90750
:1053300008F052C0F0938F06E0938E06F901718356
:105340006083B8CF8D919C91119712966C901297B3
:1053500013967C901397A815B90559F56C0142E096
:10536000C40ED11CCA14DB0420F1AC014A195B093C
:10537000DA011296159780F062827382518340831E
:10538000D9016D937C93E114F10471F0D701139668
:10539000FC93EE9312978ECF22968C0F9D1FF901EE
:1053A00091838083F301EFCFF0939106E093900611
:1053B00081CF4816590608F42C017D01D3019ACFFC
:1053C000CB010CDE7C01009739F0AE01B8010BD0A7
:1053D000C801A0DE87016ECF10E000E06BCF81E056
:1053E00090E0F89417C0FB01DC0102C001900D921F
:1053F00041505040D8F70895DC0101C06D934150F1
:105400005040E0F70895FB01DC0101900D9200206F
:10541000E1F7089514E0C8E3D4E000E005C0802F70
:10542000FE01D4DD2196011DC933D10780E00807B4
:06543000B1F7F894FFCF74
:1054360003002A00030003000300400003000101EB
:10544600110F01FF1B04FF010000920680000000FF
:105456000000C50527055405110685056305770572
:1054660000000000170827059A0B990BE106ED0AC4
:10547600D709C1099E0A8C09B60B16080D0A0064E5
:105486006563616C61676541647265737365203A33
:10549600006D657373616765203A006F72647265AB
:1054A600203A0074797065203A00636F756C6575F3
:1054B60072203A006E62724379636C65203A006925
:1054C6006E74657276616C6C65203A0074656D70F9
:1054D6006F203A00626672203A00636F6D6D616EEE
:1054E6006465203A00506C616365734C696272654D
:1054F6003A005041524B494E4720004A2E504945EA
:10550600545249004A2E20504945545249005000F1
:10551600504C414345004C494252450041424F4E92
:105526004E455300506D7200504C41434553204C3C
:1055360049425245532000504C414345204C494274
:1055460052452000504C414345532041424F4E4E58
:1055560045532000504C4143452041424F4E4E4555
:10556600532000504C4143455320504D522000508B
:105576004C41434520504D522000766F6974757238
:105586006520656E74726500766F69747572652044
:10559600736F727400436F6D204F4B0A0030783082
:1055A600374530003235003130004C69676E65731F
:1055B60031004C69676E657332002D2D2D2D2D2D12
:1055C6002D2D2D2D2D2D2D2D2D2D2D2D2D6D657347
:1055D600736167653A2000202D2D2D2D2D2D2D2D43
:1055E6002D2D2D2D2D2D2D2D2D2D2D006F7264720F
:1055F600653A2000747970653A2000636F756C65B2
:1056060075723A20006E62724379636C653A2000C7
:10561600696E74657276616C6C653A200074656DAE
:06562600706F3A20000045
:00000001FF
